{
  "_format": "hh-sol-artifact-1",
  "contractName": "WavePortal",
  "sourceName": "contracts/wavePortal.sol",
  "abi": [
    {
      "inputs": [],
      "stateMutability": "payable",
      "type": "constructor"
    },
    {
      "anonymous": false,
      "inputs": [
        {
          "indexed": true,
          "internalType": "address",
          "name": "from",
          "type": "address"
        },
        {
          "indexed": false,
          "internalType": "uint256",
          "name": "timestamp",
          "type": "uint256"
        },
        {
          "indexed": false,
          "internalType": "string",
          "name": "message",
          "type": "string"
        }
      ],
      "name": "NewWave",
      "type": "event"
    },
    {
      "inputs": [],
      "name": "getAllWaves",
      "outputs": [
        {
          "components": [
            {
              "internalType": "address",
              "name": "waver",
              "type": "address"
            },
            {
              "internalType": "string",
              "name": "message",
              "type": "string"
            },
            {
              "internalType": "uint256",
              "name": "timestamp",
              "type": "uint256"
            }
          ],
          "internalType": "struct WavePortal.Wave[]",
          "name": "",
          "type": "tuple[]"
        }
      ],
      "stateMutability": "view",
      "type": "function"
    },
    {
      "inputs": [],
      "name": "getTotalWaves",
      "outputs": [
        {
          "internalType": "uint256",
          "name": "",
          "type": "uint256"
        }
      ],
      "stateMutability": "view",
      "type": "function"
    },
    {
      "inputs": [
        {
          "internalType": "address",
          "name": "",
          "type": "address"
        }
      ],
      "name": "lastWavedAt",
      "outputs": [
        {
          "internalType": "uint256",
          "name": "",
          "type": "uint256"
        }
      ],
      "stateMutability": "view",
      "type": "function"
    },
    {
      "inputs": [
        {
          "internalType": "address",
          "name": "",
          "type": "address"
        }
      ],
      "name": "numberofWaves",
      "outputs": [
        {
          "internalType": "uint256",
          "name": "",
          "type": "uint256"
        }
      ],
      "stateMutability": "view",
      "type": "function"
    },
    {
      "inputs": [
        {
          "internalType": "string",
          "name": "_message",
          "type": "string"
        }
      ],
      "name": "wave",
      "outputs": [],
      "stateMutability": "nonpayable",
      "type": "function"
    }
  ],
  "bytecode": "0x608060405262000033604051806060016040528060248152602001620015dc602491396200005b60201b620007ac1760201c565b60644244620000439190620001a8565b6200004f919062000245565b600281905550620002ec565b620000fb8160405160240162000072919062000168565b6040516020818303038152906040527f41304fac000000000000000000000000000000000000000000000000000000007bffffffffffffffffffffffffffffffffffffffffffffffffffffffff19166020820180517bffffffffffffffffffffffffffffffffffffffffffffffffffffffff8381831617835250505050620000fe60201b60201c565b50565b60008151905060006a636f6e736f6c652e6c6f679050602083016000808483855afa5050505050565b600062000134826200018c565b62000140818562000197565b9350620001528185602086016200020f565b6200015d81620002db565b840191505092915050565b6000602082019050818103600083015262000184818462000127565b905092915050565b600081519050919050565b600082825260208201905092915050565b6000620001b58262000205565b9150620001c28362000205565b9250827fffffffffffffffffffffffffffffffffffffffffffffffffffffffffffffffff03821115620001fa57620001f96200027d565b5b828201905092915050565b6000819050919050565b60005b838110156200022f57808201518184015260208101905062000212565b838111156200023f576000848401525b50505050565b6000620002528262000205565b91506200025f8362000205565b925082620002725762000271620002ac565b5b828206905092915050565b7f4e487b7100000000000000000000000000000000000000000000000000000000600052601160045260246000fd5b7f4e487b7100000000000000000000000000000000000000000000000000000000600052601260045260246000fd5b6000601f19601f8301169050919050565b6112e080620002fc6000396000f3fe608060405234801561001057600080fd5b50600436106100575760003560e01c80633b3039af1461005c578063449d46c01461008c5780639a2cdc08146100a8578063a42a4663146100c6578063bd43a908146100f6575b600080fd5b61007660048036038101906100719190610ac6565b610114565b6040516100839190610e5c565b60405180910390f35b6100a660048036038101906100a19190610aef565b61012c565b005b6100b061053c565b6040516100bd9190610e5c565b60405180910390f35b6100e060048036038101906100db9190610ac6565b610643565b6040516100ed9190610e5c565b60405180910390f35b6100fe61065b565b60405161010b9190610d58565b60405180910390f35b60016020528060005260406000206000915090505481565b42610384600460003373ffffffffffffffffffffffffffffffffffffffff1673ffffffffffffffffffffffffffffffffffffffff1681526020019081526020016000205461017a9190610f6e565b106101ba576040517f08c379a00000000000000000000000000000000000000000000000000000000081526004016101b190610e1c565b60405180910390fd5b42600460003373ffffffffffffffffffffffffffffffffffffffff1673ffffffffffffffffffffffffffffffffffffffff1681526020019081526020016000208190555060016000808282546102109190610f6e565b9250508190555060018060003373ffffffffffffffffffffffffffffffffffffffff1673ffffffffffffffffffffffffffffffffffffffff16815260200190815260200160002060008282546102669190610f6e565b925050819055506102ac6040518060400160405280600d81526020017f257320686173207761766564210000000000000000000000000000000000000081525033610845565b600360405180606001604052803373ffffffffffffffffffffffffffffffffffffffff16815260200183815260200142815250908060018154018082558091505060019003906000526020600020906003020160009091909190915060008201518160000160006101000a81548173ffffffffffffffffffffffffffffffffffffffff021916908373ffffffffffffffffffffffffffffffffffffffff160217905550602082015181600101908051906020019061036b9291906109a6565b506040820151816002015550506000655af3107a40009050606460025442446103949190610f6e565b61039e9190610f6e565b6103a891906110a5565b6002819055506011600254116104e8576103f76040518060400160405280600781526020017f257320776f6e210000000000000000000000000000000000000000000000000081525033610845565b4781111561043a576040517f08c379a000000000000000000000000000000000000000000000000000000000815260040161043190610e3c565b60405180910390fd5b60003373ffffffffffffffffffffffffffffffffffffffff168260405161046090610d43565b60006040518083038185875af1925050503d806000811461049d576040519150601f19603f3d011682016040523d82523d6000602084013e6104a2565b606091505b50509050806104e6576040517f08c379a00000000000000000000000000000000000000000000000000000000081526004016104dd90610dfc565b60405180910390fd5b505b3373ffffffffffffffffffffffffffffffffffffffff167f5f7e16dc676677766a70e9c5628aa6c54ddb8b6e5188e2ae1e1f17f1ffbea7164284604051610530929190610e77565b60405180910390a25050565b600061057f6040518060400160405280601781526020017f5765206861766520256420746f74616c207761766573210000000000000000008152506000546108e1565b6105bd6040518060400160405280601681526020017f596f757220636f6e6e65637465642061646472657373000000000000000000008152506107ac565b61063b6040518060400160405280601b81526020017f466f7220796f75722061646472657373207765206861766520256e0000000000815250600160003373ffffffffffffffffffffffffffffffffffffffff1673ffffffffffffffffffffffffffffffffffffffff168152602001908152602001600020546108e1565b600054905090565b60046020528060005260406000206000915090505481565b60606003805480602002602001604051908101604052809291908181526020016000905b828210156107a357838290600052602060002090600302016040518060600160405290816000820160009054906101000a900473ffffffffffffffffffffffffffffffffffffffff1673ffffffffffffffffffffffffffffffffffffffff1673ffffffffffffffffffffffffffffffffffffffff16815260200160018201805461070890611042565b80601f016020809104026020016040519081016040528092919081815260200182805461073490611042565b80156107815780601f1061075657610100808354040283529160200191610781565b820191906000526020600020905b81548152906001019060200180831161076457829003601f168201915b505050505081526020016002820154815250508152602001906001019061067f565b50505050905090565b610842816040516024016107c09190610d7a565b6040516020818303038152906040527f41304fac000000000000000000000000000000000000000000000000000000007bffffffffffffffffffffffffffffffffffffffffffffffffffffffff19166020820180517bffffffffffffffffffffffffffffffffffffffffffffffffffffffff838183161783525050505061097d565b50565b6108dd828260405160240161085b929190610d9c565b6040516020818303038152906040527f319af333000000000000000000000000000000000000000000000000000000007bffffffffffffffffffffffffffffffffffffffffffffffffffffffff19166020820180517bffffffffffffffffffffffffffffffffffffffffffffffffffffffff838183161783525050505061097d565b5050565b61097982826040516024016108f7929190610dcc565b6040516020818303038152906040527f9710a9d0000000000000000000000000000000000000000000000000000000007bffffffffffffffffffffffffffffffffffffffffffffffffffffffff19166020820180517bffffffffffffffffffffffffffffffffffffffffffffffffffffffff838183161783525050505061097d565b5050565b60008151905060006a636f6e736f6c652e6c6f679050602083016000808483855afa5050505050565b8280546109b290611042565b90600052602060002090601f0160209004810192826109d45760008555610a1b565b82601f106109ed57805160ff1916838001178555610a1b565b82800160010185558215610a1b579182015b82811115610a1a5782518255916020019190600101906109ff565b5b509050610a289190610a2c565b5090565b5b80821115610a45576000816000905550600101610a2d565b5090565b6000610a5c610a5784610ecc565b610ea7565b905082815260208101848484011115610a7457600080fd5b610a7f848285611000565b509392505050565b600081359050610a9681611293565b92915050565b600082601f830112610aad57600080fd5b8135610abd848260208601610a49565b91505092915050565b600060208284031215610ad857600080fd5b6000610ae684828501610a87565b91505092915050565b600060208284031215610b0157600080fd5b600082013567ffffffffffffffff811115610b1b57600080fd5b610b2784828501610a9c565b91505092915050565b6000610b3c8383610cd5565b905092915050565b610b4d81610fc4565b82525050565b610b5c81610fc4565b82525050565b6000610b6d82610f0d565b610b778185610f30565b935083602082028501610b8985610efd565b8060005b85811015610bc55784840389528151610ba68582610b30565b9450610bb183610f23565b925060208a01995050600181019050610b8d565b50829750879550505050505092915050565b6000610be282610f18565b610bec8185610f4c565b9350610bfc81856020860161100f565b610c0581611192565b840191505092915050565b6000610c1b82610f18565b610c258185610f5d565b9350610c3581856020860161100f565b610c3e81611192565b840191505092915050565b6000610c56602783610f5d565b9150610c61826111a3565b604082019050919050565b6000610c79602583610f5d565b9150610c84826111f2565b604082019050919050565b6000610c9c600083610f41565b9150610ca782611241565b600082019050919050565b6000610cbf603483610f5d565b9150610cca82611244565b604082019050919050565b6000606083016000830151610ced6000860182610b44565b5060208301518482036020860152610d058282610bd7565b9150506040830151610d1a6040860182610d25565b508091505092915050565b610d2e81610ff6565b82525050565b610d3d81610ff6565b82525050565b6000610d4e82610c8f565b9150819050919050565b60006020820190508181036000830152610d728184610b62565b905092915050565b60006020820190508181036000830152610d948184610c10565b905092915050565b60006040820190508181036000830152610db68185610c10565b9050610dc56020830184610b53565b9392505050565b60006040820190508181036000830152610de68185610c10565b9050610df56020830184610d34565b9392505050565b60006020820190508181036000830152610e1581610c49565b9050919050565b60006020820190508181036000830152610e3581610c6c565b9050919050565b60006020820190508181036000830152610e5581610cb2565b9050919050565b6000602082019050610e716000830184610d34565b92915050565b6000604082019050610e8c6000830185610d34565b8181036020830152610e9e8184610c10565b90509392505050565b6000610eb1610ec2565b9050610ebd8282611074565b919050565b6000604051905090565b600067ffffffffffffffff821115610ee757610ee6611163565b5b610ef082611192565b9050602081019050919050565b6000819050602082019050919050565b600081519050919050565b600081519050919050565b6000602082019050919050565b600082825260208201905092915050565b600081905092915050565b600082825260208201905092915050565b600082825260208201905092915050565b6000610f7982610ff6565b9150610f8483610ff6565b9250827fffffffffffffffffffffffffffffffffffffffffffffffffffffffffffffffff03821115610fb957610fb86110d6565b5b828201905092915050565b6000610fcf82610fd6565b9050919050565b600073ffffffffffffffffffffffffffffffffffffffff82169050919050565b6000819050919050565b82818337600083830152505050565b60005b8381101561102d578082015181840152602081019050611012565b8381111561103c576000848401525b50505050565b6000600282049050600182168061105a57607f821691505b6020821081141561106e5761106d611134565b5b50919050565b61107d82611192565b810181811067ffffffffffffffff8211171561109c5761109b611163565b5b80604052505050565b60006110b082610ff6565b91506110bb83610ff6565b9250826110cb576110ca611105565b5b828206905092915050565b7f4e487b7100000000000000000000000000000000000000000000000000000000600052601160045260246000fd5b7f4e487b7100000000000000000000000000000000000000000000000000000000600052601260045260246000fd5b7f4e487b7100000000000000000000000000000000000000000000000000000000600052602260045260246000fd5b7f4e487b7100000000000000000000000000000000000000000000000000000000600052604160045260246000fd5b6000601f19601f8301169050919050565b7f4661696c656420746f207769746864726177206d6f6e65792066726f6d20636f60008201527f6e74726163742e00000000000000000000000000000000000000000000000000602082015250565b7f57616974203135206d696e7574657320756e74696c6c20796f7520776176652060008201527f616761696e000000000000000000000000000000000000000000000000000000602082015250565b50565b7f547279696e6720746f207769746864726177206d6f7265206d6f6e657920746860008201527f61742074686520636f6e7472616374206861732e000000000000000000000000602082015250565b61129c81610fc4565b81146112a757600080fd5b5056fea2646970667358221220d089cce50c6e02f1571568203bf1286e4044190cdc980685db0ccbfd18a2d56164736f6c63430008040033596f20796f2c4920616d206120636f6e747261637420616e64204920616d20736d617274",
  "linkReferences": {},
  "deployedLinkReferences": {}
}